:020000040000FA
:100000000C9443120D94941B0D94691B0D943E1B8C
:100010000D94131B0D94E81A0D94BD1A0D94921AA9
:100020000D94671A0C9474120C9474120C9474123C
:100030000C9474120C9474120C9474120D94291F65
:100040000C9474120D94310B0D9447090C949B572A
:100050000C9474120C9474120C9474120D941D1A56
:100060000C9474120D94A11D0D94771D0C947412B0
:100070000C9474120C9474120C9474120C947412E8
:100080000C94109D0C94819C0C94F29B0C94741213
:100090000C9474120C9474120C9474120C947412C8
:1000A0000C9474120C9474120C94F3970C94639B3C
:1000B0000C9417970C9474120C9474120C94879AE5
:1000C0000C94AB990C94CF980C9474120C947412F9
:1000D0000C9474120C9474120D94411D0D94171D00
:1000E0000C9474120C94EE860C94BB4F0C94EB3968
:1000F0000C94FAB20C9481850C94CCA80C94A48531
:100100000C9416830C94CF840C948A170C94D334DB
:100110000C945CA40C9439880C94DC870C940356E2
:100120000C94BF3D0C9455870C9476160C94DD2DE1
:100130000C9497C20C9483F90C94B46D0C944B8876
:100140000C9485400C940A870C9419870C949D8715
:100150000D945B1C0C9441570C94F4A40C94E2296C
:100160000C944D390C94CEA10D94E41B0C9457A51E
:100170000C941AA90C94B8870C94F3870C9476A568
:100180000C94A68C0C9480740D9451130C94E7A4D9
:100190000C94F2860D9487020C9485800C946BBDB0
:1001A0000D9416410C9410330C9441AB0C9455A94A
:1001B0000C9454850D94421C0C9490850C94738778
:1001C0000C940EFF0C9476880C94B5870C94E985FA
:1001D0000C944F2E0D9443120C947C300D943F14CC
:1001E0000C94CB850C94A0870C9479840C94E085B6
:1001F0000C9430880C94629E0C94B97F0C944E88B9
:100200000C942AB50C945F840C94C7870D944A14FF
:100210000C942F170C944E850D9407010D943912F0
:100220000C9446870C9427850C94A7840D9489031D
:100230000C94D6870C94E3850C9440820C9414ABF8
:100240000C9461880C94AF810C94BC7B0C94108648
:100250000C94BCA80D945F120C945AE30C94CE1726
:100260000D94D51B0C9436880C9499AA0C9481A5F6
:100270000C94D1780C94DB2F0C94AABF0C94598465
:100280000C949B840C94573C0C9403820D94BB03F8
:100290000C948F370D949D3F0C94B6850C94A687D3
:1002A0000C9404870C94B0C80C94908B0C9405AB00
:1002B0000C94C5170C9443F90C9424880C94E59E77
:1002C0000C94D2A30C94B2A40C9413F90D948B004B
:1002D0000D94061F0C94C1870C94F7490C9475D7A4
:1002E0000C94C19F0C9463F90C94D7860C9432A1A2
:1002F0000C9474820C942C860C940B820C942BC955
:100300000D949E130C94C2A00C9427C50C941CF958
:100310000C9415D70C94F2840D942D1C0C94968C8F
:100320000D94F63D0C94A9820C947C870C942FAB11
:100330000C941DAB0C94B3370D945C000C948F831C
:100340000C9413850C94DD850C9492AA0D94201CBA
:100350000C9455370C949D750C943EC60C94C8169D
:100360000C94A4840C942D9F0C94438D0C9429FA26
:100370000C949FF80C94C4870C94D6240C94EA86B1
:100380000D94C90F0C943B3A0C947CFF0C942D39BE
:100390000C9401870C94338D0C9493830C94988463
:1003A0000C940E880C94A2700C9413870D94540432
:1003B0000C942A880C94DE8A0C94B0850C948B875C
:1003C0000C94F6870D9420120C94ADFE0C944BA364
:1003D0000C94C27B0C9438C10C942C870C94B67B83
:1003E0000C9424850C94FB150C94867E0C943F850C
:1003F0000C9447FF0C9426870C9401860C946D870F
:100400000D9491000D9450040C949AF80C94891753
:100410000C949A870C9427880C94BB870C94BC8509
:100420000C9463850D940A1F0C9499850D949D403E
:100430000D946E000C94D4850C9467870C94D98726
:100440000C94FE860C9453D00C94A2B50C94D0E37B
:100450000C94782F0C947AAA0C947FC90C9426865D
:100460000C94CF830C942A850C942F860C9442BC58
:100470000C943C380C94CA870C9416850C94C78352
:100480000C9457880C94317F0C940AC70C94F58611
:100490000C945EA90C94F79F0C9410FF0C94B287F7
:1004A0000C949E850C9439700D9435120C944885EB
:1004B0000C94C59F0C94758A0C94AD840D94940093
:1004C0000D9424120C94ABB80C941D810C949E8452
:1004D0000C9400A40C94B3850C94257C0C94BECA97
:1004E0000C94F8850C94DD820C942EA40C942A595B
:1004F0000D9463120D94001F0D94FE1E0C94F431A4
:100500000C944AA50C94F2310C94B9560C947F8744
:100510000C948D850C945A850C943F880C9474C36C
:100520000C948A850C9495840C9416A50C94F03C3C
:100530000C94D1D00C94DC7B0C945DE30C94EAA871
:100540000C940D870D944F010D9485000C947F3809
:100550000C9460850D942E000C943D570C94F285FC
:100560000C94E37B0C9411880C9442880C94D087F3
:100570000C9485870D94A0120C9476840C94E786D5
:100580000C94766F0C9436710C941A880C94FFC3FB
:100590000C9400A50C9475850C949A260C949D9E41
:1005A0000C94CD870C943E5A0C9469B40C94FDFDC8
:1005B0000C94FD7B0C94128B0C9482840C94881701
:1005C0000C941D860C943BFE0C94C3530D94FC1E9E
:1005D0000C94E5870C9465810D94181F0C94FE749F
:1005E0000C9429290D94121F0C9411810C9485FFF1
:1005F0000C9487170C94C9800C9433850C94135B6E
:100600000C9415D80D94E2010D94E81B0C946E34F3
:100610000C948B830D9448140C943DA50C94168770
:100620000C94EA7B0D9459010C946A880C941981FE
:100630000D94EC1B0D94EA1B0C9479880C94B24336
:100640000C94F17B0D940C1C0D9428120C9410F951
:100650000C94BF850C94A9870C94FF870C9426AB4F
:100660000C94213D0C94A5320C9420FF0D947F0036
:100670000C949BE30C9415810C94D3870C94048602
:100680000C94F4330C940D810C9427A00C948915D0
:100690000C9420380C948BAA0C94DD860C9445A401
:1006A0000C94EC850C94C6270C940A860C947D5609
:1006B0000C9475B80C94A08A0C9473840C9493BC1D
:1006C0000C941B850C94097C0C9443570C943E2687
:1006D0000C941CBB0C94A3870C949E760C94E4861B
:1006E0000C946D520C9430CB0C94DC240C945785F4
:1006F0000C9445880D9471000C9407B30C94FBBDC9
:100700000C9410870C9438AB0C9419FB0C9430FEAD
:100710000C94AF540C9441800D94BB000C94963112
:100720000C9458FE0C9432A30C9412830C945488AD
:100730000C94C2850C94D9AA0C9407FA0C94568395
:100740000C943F570C94B88C0C94DA860C94BF3AF6
:100750000C9479160C944E830C942AA10C9404B931
:100760000C9430850C94A2F80C9463240C9463A12F
:100770000C94F9CD0C9445570C942C8B0C9458F98F
:100780000D94041F0C942E170C9416390C94178892
:100790000C94D1850C9491870C94CCBB0C949487C9
:1007A0000C9469850D941A120D94141F0C94708783
:1007B0000C9453370C9487850C94D32C0C946CF8C0
:1007C0000C94DAA80C9462840C94A7A10C947A2C53
:1007D0000C942EA10C9428FE0C9459F80C942386AA
:1007E0000C941AFF0C9430170D94C53D0C94FD7FAA
:1007F0000C94BB810C940B2F0C94B63E0D94F729EE
:100800000D940C1F0C941A830D944D120D94E01B43
:100810000C943F870C946BA10C9451850C945F87CA
:100820000C9417860C9452C00C94B4A50C94398582
:100830000D94B4120C94E6850C9412A90C94B9850D
:100840000D94141C0C94E2870C94C8850C94F33519
:100850000C947F840C94FB860D940E1F0C94ADCCED
:100860000C9492840D9451120C945C840C94C87B6B
:100870000D942C120C940B880C9469810C94E7A1B4
:100880000C946B810C94B4FE0C94D7850C94A184C9
:100890000C94C5850D9469040C94CE850C94F9874D
:1008A0000C9459B30C9493850C9420860C94FB857E
:1008B0000C94E7700C944CF80C9488840C9401F818
:1008C0000C949EA50C9492D00C9405380C94B07B9B
:1008D0000C9413860C947FAA0C945A880D94161FBE
:1008E0000C941A860C94B5590D945B120C943C85AB
:1008F0000C9408160C94A9AA0C94AFC50D9453003F
:100900000C94D4860D9404130C94F0370C946F84DB
:100910000C9418390C94D0C20C9452830C948B8490
:100920000D94C2120C9489F80C9497F80C94F88AE0
:100930000C94A25B0C9477160C9494F80C941B39CD
:100940000C947B850D948E000C9476870C94C2A831
:100950000C94CE7B0C94E9A30C9467880C94618171
:100960000C9440460C9496850C9479870C94A18540
:100970000C94F7A00C94B3810C94ABB60C94DA856C
:100980000C9488150C9467A10C948AFE0C94FF813A
:100990000C94C6170C9433880C941FF80C94F087B1
:1009A0000C949B850C9470A90C9416F90C9482A954
:1009B0000C948E870D943F120C94BF170C9428C989
:1009C0000C943C880C94107C0C9497870C94BB136B
:1009D0000C941D380C941DE40C9421850C9446DF76
:1009E0000C9442850C9429870C9479590C94EE8CC4
:1009F0000C9401850C94D6B20D944E1C0C946F850A
:100A00000D9441000C9482870C946B840C94F585B2
:100A10000C9405880C94F0BE0C94538D0C947DBE00
:100A20000D941A1F0D9443140C94BE870C94F3A0DC
:100A30000C94ADA30C944E870C94E4240C94A9A5BB
:100A40000D9491120C9488870C9419F90C9446A972
:100A50000C94B5E30C94F9840C9441410C94D3A804
:100A60000C9457370C949B390C94543D0C945D8531
:100A70000C940D860C9479A90C9434860C941EBAAF
:100A80000C94D57B0C948FFE0C94177C0C94F886F8
:100A90000C94EA870C943C860C94ED870C94A78503
:100AA0000C94BB150C9484850C94037C0C94966E6A
:100AB0000C943B2D0C9478850C94FE470C9467A9FC
:100AC0000C94DF870D94E21B0C943EA90C94133C0C
:100AD0000C9499570D9447120C944B850C9430A5A7
:100AE0000C94B7560C94C0170C94FFA10D944B14A2
:100AF0000C94B3550C9407860D9455120C94FDAAD2
:100B00000C9473880C941C870C941DFF0C9408881B
:100B10000C9485840C9420CD0C94AFCB0C94E78777
:100B20000C946C850C9462870D945A120C9466A2F6
:100B30000D94101F0C9445850C947C840D940D012C
:100B40000C943A350C94AC870C9464880C94CCF8D3
:100B50000C94757F0C943CFF0C94DD4C0C94FE853A
:100B60000C94D4FE0D9442030C9402880C948BDBFD
:100B70000C9438F80C94AA850D944A000C9448887B
:100B80000C941E7C0C9478160D9465000C94D9245A
:100B90000D94081F0C94BC5A0D94021F0C9494A33E
:100BA0000C94AF870D94FC3E0C9470880C9477F8ED
:100BB0000C9492A10C94CBA40C94799F0C945E8815
:100BC0000D94E7400C9429DE0C94759F0D948800D9
:100BD0000C94326E0C9436850D9460410C94D7FFC2
:100BE0000C94AA840C9407F80C94AF240C94A5F8E8
:100BF0000C94C4C10C9407820C94F77B0D9464127E
:100C00000C94DDC70C9465840C947C880C94677EEE
:100C10000C94793C0C94374E0C942D850C946D8873
:100C20000C947E850C94CB830D942F120C9417FF9B
:100C30000C9472850C942D880C9400DD0C9414880F
:100C40000C94B7810C94AD850C94292B0C94C48A18
:100C50000C9466850C94ACC00C948BA00C945651EB
:100C60000D94A7020C9435870C94BEA00C946BA530
:100C70000C94D3770C94FC870C9451880C9429869F
:100C80000C94CEFF0C9468840C9472F90D94982403
:100C90000C94D1AA0C94EF850C943D3A0C945AA074
:100CA0000C9408850C9407870C94CFB70000800043
:100CB00020012001800020018000F0008001C000A0
:100CC000C0002001C0008000200100015265736552
:100CD0007420636F6E74726F6C2069732063757219
:100CE00072656E746C792064697361626C65642EE0
:100CF00000436F6D6D732068616C7465642E204EC7
:100D000065787420627974652077696C6C207265EF
:100D1000736574207468652041726475696E6F2E06
:100D20000000537065656475696E6F20323032342F
:100D30002E30322E3100737065656475696E6F20D8
:100D400032303234303200000030303200FF0A508E
:100D500061676520686173206E6F74206265656EDF
:100D600020696D706C656D656E746564207965745D
:100D7000000A426F6F7374206C6F6F6B7570207414
:100D800061626C65000A326E642049676E6974693D
:100D90006F6E204D6170000A326E64204675656C7E
:100DA000204D6170000A50616765203920436667F5
:100DB000000A5472696D2031205461626C65000A2A
:100DC000565654204D6170000A426F6F7374204D67
:100DD0006170000A5067203620436F6E66696700B5
:100DE0000A414652204D6170000A5067203420436A
:100DF0006667000A49676E6974696F6E204D61709D
:100E0000000A5067203220436667000A5645204D8D
:100E10006170000A3D3D3D436F6D6D616E64204819
:100E2000656C703D3D3D0A0A416C6C20636F6D6DD1
:100E3000616E6473206172652073696E676C6520F2
:100E400063686172616374657220616E64206172AF
:100E50006520636F6E636174656E6174656420778D
:100E600069746820746865697220706172616D656B
:100E700074657273200A776974686F757420737073
:100E8000616365732E53796E7461783A20203C63F8
:100E90006F6D6D616E643E2B3C706172616D657447
:100EA0006572313E2B3C706172616D6574657232A2
:100EB0003E2B3C706172616D657465724E3E0A0A2C
:100EC0003D3D3D4C697374206F6620436F6D6D61CD
:100ED0006E64733D3D3D0A0A41202D2044697370C4
:100EE0006C617973203331206279746573206F6689
:100EF0002063757272656E745374617475732076B5
:100F0000616C75657320696E2062696E617279200B
:100F1000286C6976652064617461290A42202D205D
:100F20004275726E2063757272656E74206D6170A9
:100F300020616E6420636F6E66696750616765202B
:100F400076616C75657320746F20656570726F6D66
:100F50000A43202D205465737420434F4D20706F39
:100F600072742E2020557365642062792054756E4A
:100F7000657273747564696F20746F207365652082
:100F80007768657468657220616E204543552069F5
:100F900073206F6E206120676976656E20736572BD
:100FA00069616C200A20202020706F72742E2052FC
:100FB000657475726E7320612062696E617279204A
:100FC0006E756D6265722E0A4E202D205072696E0C
:100FD00074206E6577206C696E652E0A50202D2076
:100FE0005365742063757272656E742070616765F5
:100FF0002E202053796E7461783A2020502B3C705B
:101000006167654E756D6265723E0A52202D2053F0
:10101000616D65206173204120636F6D6D616E6449
:101020000A53202D20446973706C617920736967BD
:101030006E6174757265206E756D6265720A5120FD
:101040002D2053616D65206173205320636F6D6D9A
:10105000616E640A56202D20446973706C6179209A
:101060006D6170206F7220636F6E66696750616793
:10107000652076616C75657320696E2062696E61AA
:1010800072790A57202D20536574206F6E65206297
:1010900079746520696E206D6170206F7220636FB6
:1010A0006E666967506167652E20204578706563BC
:1010B00074732062696E61727920706172616D650E
:1010C000746572732E200A2020202053796E74617B
:1010D000783A2020572B3C6F66667365743E2B3C34
:1010E0006E6577627974653E0A74202D20536574AD
:1010F0002063616C6962726174696F6E2076616CE5
:101100007565732E2020457870656374732062695D
:101110006E61727920706172616D65746572732E93
:1011200020205461626C6520696E64657820697363
:101130002065697468657220302C200A20202020E8
:10114000312C206F7220322E202053796E746178FA
:101150003A2020742B3C74626C655F6964783E2B86
:101160003C6E657756616C7565313E2B3C6E6577DC
:1011700056616C7565323E2B3C6E657756616C75B9
:10118000654E3E0A5A202D20446973706C617920A7
:1011900063616C6962726174696F6E2076616C75EF
:1011A00065730A54202D20446973706C6179732033
:1011B00032353620746F6F7468206C6F6720656EEF
:1011C000747269657320696E2062696E6172790A52
:1011D00072202D20446973706C617973203235362A
:1011E00020746F6F7468206C6F6720656E7472690D
:1011F00065730A55202D20507265706172652066F6
:101200006F72206669726D776172652075706461B6
:1012100074652E20546865206E6578742062797438
:10122000652072656365697665642077696C6C20FA
:101230006361757365207468652041726475696EB9
:101240006F20746F2072657365742E0A3F202D2005
:10125000446973706C617973207468697320686580
:101260006C702070616765002C2000575545004F59
:101270003200496E6C65742074656D7000436F6F49
:101280006C616E7400526573657420636F6E747266
:101290006F6C2069732063757272656E746C79204F
:1012A00064697361626C65642E00436F6D6D7320B9
:1012B00068616C7465642E204E6578742062797460
:1012C000652077696C6C207265736574207468653D
:1012D0002041726475696E6F2E004552523B204961
:1012E0006E636F727265637420454550524F4D2096
:1012F00073697A6500303032002000200020002021
:10130000002020202000537065656475696E6F2091
:101310003230323430322E31007370656564756955
:101320006E6F203230323430320053706565647530
:10133000696E6F2063737830323031392E38000493
:101340000E11161A1C212A2C2E30323436383A3C13
:101350003E40424446484C4E505256585A5D5F6398
:10136000686F797D00000000963007772C610EEEE3
:10137000BA51099919C46D078FF46A7035A563E9EC
:10138000A395649E3288DB0EA4B8DC791EE9D5E013
:1013900088D9D2972B4CB609BD7CB17E072DB8E712
:1013A000911DBF906410B71DF220B06A4871B9F367
:1013B000DE41BE847DD4DA1AEBE4DD6D51B5D4F4A0
:1013C000C785D38356986C13C0A86B647AF962FD05
:1013D000ECC9658A4F5C0114D96C0663633D0FFA52
:1013E000F50D088DC8206E3B5E10694CE44160D558
:1013F000727167A2D1E4033C47D4044BFD850DD242
:101400006BB50AA5FAA8B5356C98B242D6C9BBDB54
:1014100040F9BCACE36CD832755CDF45CF0DD6DC4F
:10142000593DD1ABAC30D9263A00DE518051D7C8F6
:101430001661D0BFB5F4B42123C4B3569995BACF81
:101440000FA5BDB89EB802280888055FB2D90CC6A2
:1014500024E90BB1877C6F2F114C6858AB1D61C11B
:101460003D2D66B69041DC760671DB01BC20D2983A
:101470002A10D5EF8985B1711FB5B606A5E4BF9FC7
:1014800033D4B8E8A2C9077834F9000F8EA80996BA
:1014900018980EE1BB0D6A7F2D3D6D08976C649125
:1014A000015C63E6F4516B6B62616C1CD83065853E
:1014B0004E0062F2ED95066C7BA5011BC1F408821B
:1014C00057C40FF5C6D9B06550E9B712EAB8BE8B5C
:1014D0007C88B9FCDF1DDD62492DDA15F37CD38CE5
:1014E000654CD4FB5861B24DCE51B53A7400BCA3E3
:1014F000E230BBD441A5DF4AD795D83D6DC4D1A415
:10150000FBF4D6D36AE96943FCD96E34468867ADEB
:10151000D0B860DA732D0444E51D03335F4C0AAA8A
:10152000C97C0DDD3C710550AA41022710100BBE8D
:1015300086200CC925B56857B3856F2009D466B9D4
:101540009FE461CE0EF9DE5E98C9D9292298D0B009
:10155000B4A8D7C7173DB359810DB42E3B5CBDB7B6
:10156000AD6CBAC02083B8EDB6B3BF9A0CE2B60337
:101570009AD2B1743947D5EAAF77D29D1526DB04EC
:101580008316DC73120B63E3843B64943E6A6D0D37
:10159000A85A6A7A0BCF0EE49DFF099327AE000A82
:1015A000B19E077D44930FF0D2A3088768F2011E15
:1015B000FEC206695D5762F7CB67658071366C19AC
:1015C000E7066B6E761BD4FEE02BD3895A7ADA10CD
:1015D000CC4ADD676FDFB9F9F9EFBE8E43BEB717AE
:1015E000D58EB060E8A3D6D67E93D1A1C4C2D83838
:1015F00052F2DF4FF167BBD16757BCA6DD06B53F9E
:101600004B36B248DA2B0DD84C1B0AAFF64A0336DC
:10161000607A0441C3EF60DF55DF67A8EF8E6E315B
:1016200079BE69468CB361CB1A8366BCA0D26F25A4
:1016300036E2685295770CCC03470BBBB9160222F1
:101640002F260555BE3BBAC5280BBDB2925AB42B06
:10165000046AB35CA7FFD7C231CFD0B58B9ED92C1B
:101660001DAEDE5BB0C2649B26F263EC9CA36A7580
:101670000A936D02A906099C3F360EEB8567077237
:1016800013570005824ABF95147AB8E2AE2BB17B9E
:10169000381BB60C9B8ED2920DBED5E5B7EFDC7C25
:1016A00021DFDB0BD4D2D38642E2D4F1F8B3DD687C
:1016B0006E83DA1FCD16BE815B26B9F6E177B06F77
:1016C0007747B718E65A0888706A0FFFCA3B066664
:1016D0005C0B0111FF9E658F69AE62F8D3FF6B61F1
:1016E00045CF6C1678E20AA0EED20DD75483044E93
:1016F000C2B30339612667A7F71660D04D47694921
:10170000DB776E3E4A6AD1AEDC5AD6D9660BDF4033
:10171000F03BD83753AEBCA9C59EBBDE7FCFB247E6
:10172000E9FFB5301CF2BDBD8AC2BACA3093B353CB
:10173000A6A3B4240536D0BA9306D7CD2957DE54D4
:10174000BF67D9232E7A66B3B84A61C4021B685DAD
:10175000942B6F2A37BE0BB4A18E0CC31BDF055A26
:101760008DEF022D0000000041311B1982623632DC
:10177000C3532D2B04C56C6445F4777D86A75A5658
:10178000C796414F088AD9C849BBC2D18AE8EFFA47
:10179000CBD9F4E30C4FB5AC4D7EAEB58E2D839E08
:1017A000CF1C98875112C24A1023D953D370F478B2
:1017B0009241EF6155D7AE2E14E6B537D7B5981CD8
:1017C0009684830559981B8218A9009BDBFA2DB0DB
:1017D0009ACB36A95D5D77E61C6C6CFFDF3F41D488
:1017E0009E0E5ACDA2248495E3159F8C2046B2A765
:1017F0006177A9BEA6E1E8F1E7D0F3E82483DEC370
:1018000065B2C5DAAAAE5D5DEB9F464428CC6B6F2E
:1018100069FD7076AE6B3139EF5A2A202C09070B1F
:101820006D381C12F33646DFB2075DC6715470ED99
:1018300030656BF4F7F32ABBB6C231A275911C89EF
:1018400034A00790FBBC9F17BA8D840E79DEA925C2
:1018500038EFB23CFF79F373BE48E86A7D1BC5419F
:101860003C2ADE58054F79F0447E62E9872D4FC24D
:10187000C61C54DB018A159440BB0E8D83E823A659
:10188000C2D938BF0DC5A0384CF4BB218FA7960A2A
:10189000CE968D130900CC5C4831D7458B62FA6E29
:1018A000CA53E177545DBBBA156CA0A3D63F8D88AF
:1018B000970E96915098D7DE11A9CCC7D2FAE1ECD9
:1018C00093CBFAF55CD762721DE6796BDEB55440B6
:1018D0009F844F5958120E161923150FDA703824A9
:1018E0009B41233DA76BFD65E65AE67C2509CB5756
:1018F0006438D04EA3AE9101E29F8A1821CCA73361
:1019000060FDBC2AAFE124ADEED03FB42D83129F21
:101910006CB20986AB2448C9EA1553D029467EFB30
:10192000687765E2F6793F2FB7482436741B091DA6
:10193000352A1204F2BC534BB38D485270DE6579E0
:1019400031EF7E60FEF3E6E7BFC2FDFE7C91D0D5AD
:101950003DA0CBCCFA368A83BB07919A7854BCB1B0
:101960003965A7A84B98833B0AA99822C9FAB509FB
:1019700088CBAE104F5DEF5F0E6CF446CD3FD96D56
:101980008C0EC27443125AF3022341EAC1706CC137
:10199000804177D847D7369706E62D8EC5B500A586
:1019A00084841BBC1A8A41715BBB5A6898E87743F0
:1019B000D9D96C5A1E4F2D155F7E360C9C2D1B27D6
:1019C000DD1C003E120098B9533183A09062AE8BAB
:1019D000D153B59216C5F4DD57F4EFC494A7C2EF06
:1019E000D596D9F6E9BC07AEA88D1CB76BDE319C45
:1019F0002AEF2A85ED796BCAAC4870D36F1B5DF86E
:101A00002E2A46E1E136DE66A007C57F6354E8541E
:101A10002265F34DE5F3B202A4C2A91B679184309D
:101A200026A09F29B8AEC5E4F99FDEFD3ACCF3D6D7
:101A30007BFDE8CFBC6BA980FD5AB2993E099FB2ED
:101A40007F3884ABB0241C2CF115073532462A1E92
:101A500073773107B4E17048F5D06B513683467A1D
:101A600077B25D634ED7FACB0FE6E1D2CCB5CCF9B5
:101A70008D84D7E04A1296AF0B238DB6C870A09D17
:101A80008941BB84465D2303076C381AC43F153176
:101A9000850E0E2842984F6703A9547EC0FA7955E7
:101AA00081CB624C1FC538815EF423989DA70EB38D
:101AB000DC9615AA1B0054E55A314FFC996262D797
:101AC000D85379CE174FE149567EFA50952DD77BE2
:101AD000D41CCC62138A8D2D52BB963491E8BB1F67
:101AE000D0D9A006ECF37E5EADC265476E91486C1E
:101AF0002FA05375E836123AA90709236A5424081F
:101B00002B653F11E479A796A548BC8F661B91A46D
:101B1000272A8ABDE0BCCBF2A18DD0EB62DEFDC0EE
:101B200023EFE6D9BDE1BC14FCD0A70D3F838A2684
:101B30007EB2913FB924D070F815CB693B46E6429E
:101B40007A77FD5BB56B65DCF45A7EC5370953EED9
:101B5000763848F7B1AE09B8F09F12A133CC3F8A6E
:101B600072FD249300000000376AC2016ED4840322
:101B700059BE4602DCA80907EBC2CB06B27C8D0435
:101B800085164F05B851130E8F3BD10FD685970D93
:101B9000E1EF550C64F91A095393D8080A2D9E0AEF
:101BA0003D475C0B70A3261C47C9E41D1E77A21F8E
:101BB000291D601EAC0B2F1B9B61ED1AC2DFAB18F9
:101BC000F5B56919C8F23512FF98F713A626B111B9
:101BD000914C7310145A3C152330FE147A8EB816AB
:101BE0004DE47A17E0464D38D72C8F398E92C93B99
:101BF000B9F80B3A3CEE443F0B84863E523AC03C67
:101C00006550023D58175E366F7D9C3736C3DA3516
:101C100001A9183484BF5731B3D59530EA6BD3325C
:101C2000DD01113390E56B24A78FA925FE31EF2745
:101C3000C95B2D264C4D62237B27A0222299E620EA
:101C400015F3242128B4782A1FDEBA2B4660FC291C
:101C5000710A3E28F41C712DC376B32C9AC8F52E58
:101C6000ADA2372FC08D9A70F7E75871AE591E7329
:101C70009933DC721C2593772B4F517672F11774D0
:101C8000459BD57578DC897E4FB64B7F16080D7D58
:101C90002162CF7CA4748079931E4278CAA0047A12
:101CA000FDCAC67BB02EBC6C87447E6DDEFA386FF1
:101CB000E990FA6E6C86B56B5BEC776A025231681C
:101CC0003538F369087FAF623F156D6366AB2B61F2
:101CD00051C1E960D4D7A665E3BD6464BA03226646
:101CE0008D69E06720CBD74817A115494E1F534B8C
:101CF0007975914AFC63DE4FCB091C4E92B75A4C62
:101D0000A5DD984D989AC446AFF00647F64E40457B
:101D1000C12482444432CD4173580F402AE64942DF
:101D20001D8C8B435068F154670233553EBC755788
:101D300009D6B7568CC0F853BBAA3A52E2147C506D
:101D4000D57EBE51E839E25ADF53205B86ED6659F5
:101D5000B187A4583491EB5D03FB295C5A456F5E53
:101D60006D2FAD5F801B35E1B771F7E0EECFB1E2CB
:101D7000D9A573E35CB33CE66BD9FEE73267B8E5FF
:101D8000050D7AE4384A26EF0F20E4EE569EA2ECC9
:101D900061F460EDE4E22FE8D388EDE98A36ABEB3D
:101DA000BD5C69EAF0B813FDC7D2D1FC9E6C97FE0A
:101DB000A90655FF2C101AFA1B7AD8FB42C49EF9CB
:101DC00075AE5CF848E900F37F83C2F2263D84F0EB
:101DD000115746F1944109F4A32BCBF5FA958DF7F1
:101DE000CDFF4FF6605D78D95737BAD80E89FCDA47
:101DF00039E33EDBBCF571DE8B9FB3DFD221F5DD2D
:101E0000E54B37DCD80C6BD7EF66A9D6B6D8EFD444
:101E100081B22DD504A462D033CEA0D16A70E6D3AE
:101E20005D1A24D210FE5EC527949CC47E2ADAC6B1
:101E3000494018C7CC5657C2FB3C95C3A282D3C1B8
:101E400095E811C0A8AF4DCB9FC58FCAC67BC9C846
:101E5000F1110BC9740744CC436D86CD1AD3C0CFA2
:101E60002DB902CE4096AF9177FC6D902E422B9209
:101E70001928E9939C3EA696AB546497F2EA229502
:101E8000C580E094F8C7BC9FCFAD7E9E9613389C6A
:101E9000A179FA9D246FB598130577994ABB319BB8
:101EA0007DD1F39A3035898D075F4B8C5EE10D8EC5
:101EB000698BCF8FEC9D808ADBF7428B8249048946
:101EC000B523C68888649A83BF0E5882E6B01E8008
:101ED000D1DADC8154CC938463A651853A181787F4
:101EE0000D72D586A0D0E2A997BA20A8CE0466AA22
:101EF000F96EA4AB7C78EBAE4B1229AF12AC6FAD90
:101F000025C6ADAC1881F1A72FEB33A6765575A485
:101F1000413FB7A5C429F8A0F3433AA1AAFD7CA389
:101F20009D97BEA2D073C4B5E71906B4BEA740B64C
:101F300089CD82B70CDBCDB23BB10FB3620F49B193
:101F400055658BB06822D7BB5F4815BA06F653B803
:101F5000319C91B9B48ADEBC83E01CBDDA5E5ABF05
:101F6000ED3498BE000000006567BCB88BC809AAB4
:101F7000EEAFB5125797628F32F0DE37DC5F6B251C
:101F8000B938D79DEF28B4C58A4F087D64E0BD6F8E
:101F9000018701D7B8BFD64ADDD86AF23377DFE0D0
:101FA000561063589F571950FA30A5E8149F10FA3D
:101FB00071F8AC42C8C07BDFADA7C7674308727534
:101FC000266FCECD707FAD951518112DFBB7A43FB0
:101FD0009ED0188727E8CF1A428F73A2AC20C6B0D4
:101FE000C9477A083EAF32A05BC88E18B5673B0A76
:101FF000D00087B26938502F0C5FEC97E2F059851A
:102000008797E53DD1878665B4E03ADD5A4F8FCF9B
:102010003F2833778610E4EAE37758520DD8ED4035
:1020200068BF51F8A1F82BF0C49F97482A30225A74
:102030004F579EE2F66F497F9308F5C77DA740D5BD
:1020400018C0FC6D4ED09F352BB7238DC518969FB9
:10205000A07F2A271947FDBA7C204102928FF410F5
:10206000F7E848A83D58149B583FA823B6901D3167
:10207000D3F7A1896ACF76140FA8CAACE1077FBE57
:102080008460C306D270A05EB7171CE659B8A9F4E5
:102090003CDF154C85E7C2D1E0807E690E2FCB7BFB
:1020A0006B4877C3A20F0DCBC768B17329C7046112
:1020B0004CA0B8D9F5986F4490FFD3FC7E5066EEE3
:1020C0001B37DA564D27B90E284005B6C6EFB0A427
:1020D000A3880C1C1AB0DB817FD767399178D22B8B
:1020E000F41F6E9303F7263B66909A83883F2F91E7
:1020F000ED589329546044B43107F80CDFA84D1E05
:10210000BACFF1A6ECDF92FE89B82E4667179B5432
:10211000027027ECBB48F071DE2F4CC93080F9DB30
:1021200055E745639CA03F6BF9C783D3176836C159
:10213000720F8A79CB375DE4AE50E15C40FF544EBC
:102140002598E8F673888BAE16EF3716F8408204B0
:102150009D273EBC241FE92141785599AFD7E08BDC
:10216000CAB05C333BB659ED5ED1E555B07E504701
:10217000D519ECFF6C213B62094687DAE7E932C8E2
:10218000828E8E70D49EED28B1F951905F56E48214
:102190003A31583A83098FA7E66E331F08C1860D7E
:1021A0006DA63AB5A4E140BDC186FC052F294917AB
:1021B0004A4EF5AFF376223296119E8A78BE2B985E
:1021C0001DD997204BC9F4782EAE48C0C001FDD26E
:1021D000A566416A1C5E96F779392A4F97969F5DEE
:1021E000F2F123E505196B4D607ED7F58ED162E7DC
:1021F000EBB6DE5F528E09C237E9B57AD946006880
:10220000BC21BCD0EA31DF888F56633061F9D62219
:10221000049E6A9ABDA6BD07D8C101BF366EB4AD93
:10222000530908159A4E721DFF29CEA511867BB75A
:1022300074E1C70FCDD91092A8BEAC2A4611193847
:102240002376A5807566C6D810017A60FEAECF727F
:102250009BC973CA22F1A457479618EFA939ADFD5F
:10226000CC5E114506EE4D766389F1CE8D2644DCB9
:10227000E841F86451792FF9341E9341DAB12653BD
:10228000BFD69AEBE9C6F9B38CA1450B620EF019E3
:1022900007694CA1BE519B3CDB3627843599929649
:1022A00050FE2E2E99B95426FCDEE89E12715D8CEC
:1022B0007716E134CE2E36A9AB498A1145E63F03A5
:1022C000208183BB7691E0E313F65C5BFD59E9491D
:1022D000983E55F12106826C44613ED4AACE8BC64D
:1022E000CFA9377E38417FD65D26C36EB389767C11
:1022F000D6EECAC46FD61D590AB1A1E1E41E14F38B
:102300008179A84BD769CB13B20E77AB5CA1C2B968
:1023100039C67E0180FEA99CE59915240B36A036AE
:102320006E511C8EA7166686C271DA3E2CDE6F2CAB
:1023300049B9D394F081040995E6B8B17B490DA35E
:102340001E2EB11B483ED2432D596EFBC3F6DBE96E
:10235000A69167511FA9B0CC7ACE0C749461B9666E
:10236000F10605DE00002100240027002A002D00D0
:102370003000330001010000040107010A010000E0
:102380002200250028002B002E003100340002011D
:102390000000050108010B010000200023002600B9
:1023A00029002C002F00320000010000030106016B
:1023B00009010505050507050808080802020202CB
:1023C0000A0A0808040404040101010101010101D1
:1023D0000303030303030303040707070C0C0C0C9C
:1023E0000C0C0C0C02020202060606060606060685
:1023F0000B0B0B0B0B0B0B0B010210202008081012
:102400002040102040800201020108040201010264
:10241000040810204080804020100804020180043D
:102420000201804020100804020108040201010298
:1024300004081020408001020408102040800000A1
:102440000A0B02090C0D0E0807030401000000002E
:10245000000000000000000000000000000000007C
:102460000000000000000000000012111000000039
:10247000000000000000000000000000000000005C
:1024800000000000FE0311241FBECFEFD1E2DEBF2B
:10249000CDBF00E00CBF12E0A0E0B2E0E6E9F7E952
:1024A00002E00BBF02C007900D92A638B107D9F722
:1024B0002FE1A6E8B2E001C01D92A63EB207E1F707
:1024C00012E1C3E4D2E100E006C021970109802FA8
:1024D000FE010F949F4BC234D10780E00807A9F793
:1024E0000F947E2D0D94C94B0C9400008091B01F69
:1024F00087709EEF980F923010F0863029F480910B
:102500006F00886080936F0008955091B01F252F51
:10251000277009F4F5C031E0243030F0263009F09E
:1025200030E091E0263009F490E02091A1042817D2
:1025300009F4E8C02091A004281305C02091460C9E
:10254000203208F0DFC020919F04281305C020919D
:10255000460C203308F0D6C020919E04281305C0F5
:102560002091460C203408F0CDC020919D04281302
:1025700005C02091460C203508F0C4C020918D0480
:10258000281305C02091460C203608F0BBC02091CE
:102590008B04281305C02091460C203708F0B2C0E8
:1025A00020918A042813B0C04091460C242F221F8A
:1025B0002227221F40919C04481709F4A7C040918C
:1025C0009B04481305C040911D02423008F09EC094
:1025D00040919A04481305C040911D02433008F011
:1025E00095C040919904481305C040911D024430A4
:1025F00008F08CC040919804481305C040911D021A
:10260000453008F083C040918904481305C04091CB
:102610001D02463008F07AC040918804481305C076
:1026200040911D02473008F071C040918704481363
:1026300005C040911D02483008F068C04091C609AD
:10264000481709F46BC040919204481306C04091AA
:10265000670C4871483009F461C0409190044813F8
:1026600008C040913C1F45FD59C04091121E40FDDD
:1026700055C040918F04481304C040912A1E46FD66
:102680004DC040919104481304C040913C1F44FD4B
:1026900045C040919604481302C0311139C04091A1
:1026A0009504481304C0332311F056FD31C0309116
:1026B0008E04381302C091112CC03091930438134A
:1026C00002C0911126C030919404381302C09111B8
:1026D00020C090919704981709F190918404981361
:1026E00004C09091620B90FD19C0909183049813DF
:1026F00005C09091620B9171913181F0922F09C0C8
:1027000030E012CF21E056CF20E054CF21E096CF29
:10271000932F811101C091E0892F089591E0F9CFA5
:10272000CF9390916D059817F1F09091C40A981786
:10273000D1F0909156059817B1F090915C059817DB
:1027400091F09091A20A981771F09091C60A98178B
:1027500051F090910F05C091470CC695C170981724
:1027600019F0C0E001C0C1E00E9485128111C82F9C
:102770008C2FCF9108958F929F92AF92BF92CF925C
:10278000DF92EF92FF920F931F93CF93DF9300D0CE
:1027900000D000D01F92CDB7DEB7E091D01CEC7115
:1027A000EC3031F48091C91C24E230E081FF02C09A
:1027B00030E020E00091C41C1091C51C80911D0BDD
:1027C00090911E0B801B910B6AE070E00F94C94A38
:1027D000615071092C5D3F4F261737070CF4ECC090
:1027E0007C836B838B819C811816190624F0820FE1
:1027F000931F9C838B838B819C812817390714F44A
:102800003C832B8380918C0590918D05801B910BCF
:102810006AE070E00F94C94A6150710926173707C2
:102820000CF4CDC07E836D838D819E8118161906B0
:1028300024F0820F931F9E838D838D819E812817A4
:10284000390714F43E832D8380918A0590918B057E
:10285000801B910B6AE070E00F94C94A61507109C6
:10286000261737070CF4AEC078876F838F81988561
:102870001816190624F0820F931F98878F838F8173
:1028800098852817390714F438872F838091880595
:1028900090918905801B910B6AE070E00F94C94A02
:1028A00061507109261737070CF48FC07A87698742
:1028B00089859A851816190624F0820F931F9A8726
:1028C000898789859A852817390714F43A872987D3
:1028D0002091C2043091C3044091C4045091C504B6
:1028E000BE01675F7F4FEC3009F072C0A091C60453
:1028F000B091C7040091C8041091C904490184E251
:10290000880E911C5A0184E2A80EB11C7D0184E25C
:10291000E80EF11C680184E2C80ED11CFE0131965C
:102920008281938182179307A9F08417950791F00C
:102930008A179B0779F08017910761F08815990530
:1029400049F08A159B0531F08E159F0519F08C15FD
:102950009D0519F401979383828332966E177F0742
:10296000F9F68B819C819093AF028093AE028D81AA
:102970009E819093AD028093AC028F819885909355
:10298000AB028093AA0289859A8590939D028093D9
:102990009C022A960FB6F894DEBF0FBECDBFDF9122
:1029A000CF911F910F91FF90EF90DF90CF90BF904C
:1029B000AF909F908F900895621B730B11CF621B95
:1029C000730B30CF621B730B4FCF621B730B6ECF39
:1029D000FE013196828193818217930719F0841743
:1029E000950719F401979383828332966E177F07B8
:1029F00089F7B7CF8091000590910105439760F169
:102A000081E090E090930105809300058091B804E7
:102A10009091B904A091BA04B091BB048093B4041E
:102A20009093B504A093B604B093B70480919E022E
:102A300090919F02A091A002B091A1028093B8044E
:102A40009093B904A093BA04B093BB048091B304EB
:102A500091E089278093B3048091D01C8C718C30D5
:102A600031F08091470C8073803309F03FC0809132
:102A7000B70C9091B80C892B01F58091C91C81FD90
:102A80001CC080913D1E80FF2BC080913D1E80FFA9
:102A900036C08091AF1E9091B01EA091B11EB09132
:102AA000B21E0196A11DB11D8093AF1E9093B01E62
:102AB000A093B11EB093B21E089580913D1E816017
:102AC00080933D1E8091DD1E8F7E8093DD1E809160
:102AD000CC1C8F77D1F61092B80C1092B70CD5CFD2
:102AE0008091DD1E80618093DD1ECFCF80913D1EE1
:102AF000816080933D1E8091DD1E8F7EF4CF109209
:102B0000AF1E1092B01E1092B11E1092B21E089508
:102B100008958091741E8930CCF481E090E0909308
:102B2000AF028093AE0285E090E09093AD02809377
:102B3000AC0289E090E09093AB028093AA028DE012
:102B400090E090939D0280939C02089580E190E034
:102B50009093AF028093AE0284E090E09093AD0238
:102B60008093AC0288E090E09093AB028093AA023D
:102B70008CE090E0E6CFE091FE03F091FF038081CE
:102B80009091FD03892381F080913D1E80FD13C04B
:102B90008DE090E0909301058093000580913D1EAB
:102BA000816080933D1E089580913D1E80FD15C07B
:102BB00085E090E0EFCF80910005909101050D97A1
:102BC00059F08091EC1E8F5F8093EC1E8DE090E0B9
:102BD00090930105809300050895809100059091E0
:102BE00001050597C9F38091EC1E8F5F8093EC1E61
:102BF00085E090E0EDCF8AE090E09093AF02809383
:102C0000AE028CE190E09093AD028093AC02089507
:102C10008091450C807F803421F58091741E8A302C
:102C20006CF484E290E09093AF028093AE0280E176
:102C300090E09093AD028093AC02089584311CF42F
:102C400083E290E0F0CF8E311CF482E290E0EBCF93
:102C50008FE190E09093AF028093AE028DE090E020
:102C6000E8CF803609F041C08091741E24E230E044
:102C70008A3024F08431ACF423E230E03093AF02A8
:102C80002093AE0229E030E03093AD022093AC02F5
:102C90008A3004F587E190E09093AB028093AA021A
:102CA000089522E230E08E3134F02FE130E08832B6
:102CB00014F421E230E03093AF022093AE0226E01C
:102CC00030E03093AD022093AC028E3134F485E1D4
:102CD00090E0E2CF86E190E0DFCF88321CF484E11F
:102CE00090E0DACF83E190E0D7CF0895089508957A
:102CF00008959091741E8091D01C8C718C3081F558
:102D00009A30CCF08CE090E09093AF028093AE02CA
:102D100083E090E09093AD028093AC0286E090E077
:102D20009093AB028093AA0289E090E090939D0279
:102D300080939C02089581E090E09093AF0280938D
:102D4000AE0284E090E09093AD028093AC0287E005
:102D500090E09093AB028093AA028AE090E0E6CFE5
:102D60009A306CF086E090E09093AF028093AE02D0
:102D700083E090E09093AD028093AC02089581E0EF
:102D800090E09093AF028093AE0284E090E0F2CFA7
:102D900080911D0B90911E0B2091C41C3091C51C7D
:102DA000AC0144505109241735070CF04BC0821B6D
:102DB000930B97FD01969595879504979093AF0295
:102DC0008093AE0280918C0590918D05AC014450AA
:102DD000510924173507CCF5821B930B97FD0196FB
:102DE0009595879504979093AD028093AC0280915E
:102DF0008A0590918B05AC01445051092417350781
:102E00003CF5821B930B97FD01969595879504974A
:102E10009093AB028093AA028091880590918905D6
:102E2000AC014450510924173507ACF4821B930BB5
:102E300097FD019695958795049790939D028093B1
:102E40009C02089580539D4FB2CF80539D4FC4CFB5
:102E500080539D4FD6CF80539D4FE8CF089508955E
:102E60008091741E9091D01C9C719C3091F58A3099
:102E7000CCF088E090E09093AF028093AE0282E0C5
:102E800090E09093AD028093AC0284E090E0909348
:102E9000AB028093AA0286E090E090939D0280931B
:102EA0009C0208951816ECF781E090E09093AF0231
:102EB0008093AE0283E090E09093AD028093AC02E9
:102EC00085E090E09093AB028093AA0287E090E0C7
:102ED000E4CF8A308CF024E030E03093AF022093CE
:102EE000AE0282E090E09093AD028093AC0230930A
:102EF000AB022093AA02D1CF18169CF621E030E055
:102F00003093AF022093AE0283E090E0ECCF0895BF
:102F10000895089580913D1E80FD10C01092010516
:102F20001092000580913D1E816080933D1E83E0DC
:102F30008093B90C81E08093B30408958091CA1CFA
:102F400087FF05C01092010510920005F0CF809117
:102F5000AF1E9091B01EA091B11EB091B21E8436EA
:102F60009105A105B10530F780910005909101050B
:102F70008D9701F31092010510920005DBCF0895A3
:102F80001092010510920005089508951092010510
:102F90001092000581E08093B30408958091450C60
:102FA000807F803479F58091D01C8C718C30C9F48D
:102FB00088E090E09093AF028093AE0282E090E0D0
:102FC0009093AD028093AC0284E090E09093AB02CA
:102FD0008093AA0286E090E090939D0280939C02E9
:102FE000089524E030E03093AF022093AE0282E0F7
:102FF00090E09093AD028093AC023093AB022093AB
:10300000AA02EACF803661F78091D01C8C718C3097
:1030100079F286E090E09093AF028093AE0282E076
:1030200090E09093AD028093AC0224E030E0E5CFD5
:10303000CF93DF9310922A05109249058E3111F437
:103040000C94D12108F002C1863011F40C94722046
:1030500008F05FC0823011F40C94951F833011F496
:103060000C94FE1F813009F05EC088E08093A104BB
:1030700089E08093A0048AE080939F048BE0809392
:103080009E048CE080939D048CE180939C0488E1F5
:1030900080939B0488E280939A0484E2809399044D
:1030A00082E28093980484E180930B0585E180930C
:1030B000100583E080930D0588E380935C0589E328
:1030C0008093560586E38093C40A87E380936D0559
:1030D0008EE38093A20A8AE38093C60A81E38093F9
:1030E00097048EE1809396048FE18093950480E1AC
:1030F0008093940481E1809393048FE280939204FF
:1031000084E08093C60982E080930F058BE20C94E3
:10311000D220893011F40C942C2108F050C0883052
:1031200011F40C94D52088E08093A10489E0809369
:10313000A0048AE080939F048BE080939E048CE03F
:1031400080939D048CE180939C0488E180939B0490
:1031500088E280939A0484E28093990482E28093C7
:10316000980484E180930B0585E18093100588E342
:1031700080935C0589E38093560586E38093C40AB7
:1031800087E380936D058AE38093C60A80E180938C
:10319000940481E1809393048FE28093920484E00D
:1031A0008093C60981E38093970483E080930F05A1
:1031B00085E08093910486E080939604A7CF8A30BF
:1031C00011F40C948521843109F0ADCF98E09093EF
:1031D000A10499E09093A0049AE090939F049BE04F
:1031E00090939E049CE090939D049CE190939C049A
:1031F00098E190939B0498E290939A0494E29093C0
:10320000990492E29093980480930B0585E1809352
:1032100010058EE38093A20A8AE38093C60A89E3AD
:103220008093560588E380935C0587E380936D0562
:1032300086E38093C40A8FE28093920484E08093B3
:10324000C60981E3809397040C94CF218A3211F44C
:103250000C94F02208F08FC0883211F40C942422D0
:1032600010F00C9488228F3109F05DCF98E0909394
:10327000A10499E09093A0049AE090939F049BE0AE
:1032800090939E049CE090939D0492E390938D0410
:1032900097E290938B049AE290938A0498E2909339
:1032A0009C0496E290939B0494E390939A0490E399
:1032B0009093990494E29093980492E290938904F5
:1032C0009EE29093880495E39093870493E1909312
:1032D0000B0592E19093100594E190930D0598E30E
:1032E00090935C0599E39093560595E4909355056A
:1032F00096E39093C40A97E390936D059EE39093B1
:10330000A20A9AE39093C60A9BE390936E0591E319
:103310009093970495E09093960496E0909395048B
:1033200097E09093910494E0909390049AE19093A5
:103330008F049DE29093C60990E19093940491E1EB
:103340009093930498E190938E049FE2909392045B
:1033500093E390937E0A92E090930F059BE2909303
:10336000130B93E0909311058093A10A81E280935F
:103370005D0B83E2B4C6893308F06EC0873308F072
:103380006EC08D3209F0CFCE9AE09093A1049BE0FD
:103390009093A0049CE090939F0499E090939E04E6
:1033A00097E290939C049DE190939B049CE1909301
:1033B0009A049BE1909399049AE19093980493E185
:1033C00090930B0592E19093100595E190930D0574
:1033D00094E190930F0599E390935C0598E39093A3
:1033E000560595E490936E0591E49093C40A9AE390
:1033F00090936D0592E49093A20A9BE39093B30A95
:1034000097E39093C60A98E190937E0A96E2909390
:1034100097049AE2909396049BE29093950499E224
:103420009093C6099CE29093900490E390938F044C
:1034300090E2909394049FE1909393049EE1909383
:103440008E048093910481E280939D0482E28093B4
:103450008D0488E20C94EC228C3309F064CE8091C8
:103460006C1F8F7329F0873308F0895F80937E0A81
:103470008091031D982F9E7739F086958F7387333F
:1034800008F0895F8093A30C8091310C8F7329F031
:10349000873308F0895F809397048091CA1C982F26
:1034A0009E7739F086958F73873308F0895F809314
:1034B000C6098091B41F982F9C7F39F08695869518
:1034C000873308F0895F80939204C0914A1F8C2F44
:1034D0008F7329F0873308F0895F8093910490916E
:1034E000491F892F8F7329F0873308F0895F8093F4
:1034F000900496FF08C08091781F82958F700F947A
:10350000E11E80936E05C7FF08C08091851D8295DE
:103510008F700F94E11E809355058091FA1D8F7373
:1035200029F0873308F0895F8093D20A80913A1E90
:103530008F7329F0873308F0895F8093D30A8091D5
:10354000870C982F9C7F39F086958695873308F0F5
:10355000895F80931105C091041EC0FF07C0809150
:10356000051E8F710F94E11E8093D00AC1FF08C021
:103570008C2F8695869586950F94E11E8093D10AAF
:1035800080911A1E982F9E7739F086958F73873316
:1035900008F0895F8093A10A8091191E982F9E7769
:1035A00039F086958F73873308F0895F80935D0BC0
:1035B00080911B1E9FEF980F953428F4873308F0F5
:1035C000895F8093980A80912A1E8F7329F0873330
:1035D00008F0895F80938F048091640A807C41F0B9
:1035E00080916C0A8F73873308F0895F809386041B
:1035F00080915A0C8F73873308F0895F80938C0415
:103600008091970C86958695873308F0895F809323
:10361000850480917C0C8F73873308F0895F8093D9
:103620005B058091630B8F7329F0873308F0895F06
:103630008093840480916E0B8F7329F0873308F098
:10364000895F809383048091640B8F7329F08733A3
:1036500008F0895F809382049091CE1C892F83703B
:1036600031F1892F8C7F41F0892F8695869587339C
:1036700008F0895F8093130B93709093140B8091E3
:10368000DD1E8E7F8093DD1E8091130B923011F42E
:103690000C94402310F00C944A2360E0913011F414
:1036A0000C944B2361E08091130B0F941A1861E086
:1036B000809197040F941A1861E0809196040F94FA
:1036C0001A1861E0809195040F941A1861E08091B6
:1036D00085040F941A1861E08091C6090F941A1896
:1036E00061E0809192040F941A1861E08091940433
:1036F0000F941A1861E0809193040F941A1861E0F6
:1037000080918E040F941A1861E0809191040F94B7
:103710001A1861E0809190040F941A1861E080916A
:103720008F040F941A188091031D80FF05C061E07B
:103730008091A30C0F941A188091470C82FF05C04A
:1037400061E0809156050F94C31580914905811160
:10375000D9C061E080919C040F941A1861E08091B7
:103760009B040F941A1861E080919A040F941A1820
:1037700061E0809199040F941A1861E08091980497
:103780000F941A1880919C0490E0FC01EE54FC4DBB
:10379000E491F0E0EE0FFF1FE258FC4D25913491CB
:1037A00030932C0520932B05FC01E850FC4DE4914F
:1037B000E0932D0580919B0490E0FC01EE54FC4DBC
:1037C000E491F0E0EE0FFF1FE258FC4D259134919B
:1037D00030932F0520932E05FC01E850FC4DE49119
:1037E000E093300580919A0490E0FC01EE54FC4D8A
:1037F000E491F0E0EE0FFF1FE258FC4D259134916B
:103800003093320520933105FC01E850FC4DE491E2
:10381000E09333058091990490E0FC01EE54FC4D57
:10382000E491F0E0EE0FFF1FE258FC4D259134913A
:103830003093380520933705FC01E850FC4DE491A6
:10384000E09339058091980490E0FC01EE54FC4D22
:10385000E491F0E0EE0FFF1FE258FC4D259134910A
:1038600030933B0520933A05FC01E850FC4DE49170
:10387000E0933C058091890490E0FC01EE54FC4DFE
:10388000E491F0E0EE0FFF1FE258FC4D25913491DA
:1038900030933E0520933D05FC01E850FC4DE4913A
:1038A000E0933F058091880490E0FC01EE54FC4DCC
:1038B000E491F0E0EE0FFF1FE258FC4D25913491AA
:1038C0003093410520934005FC01E850FC4DE49104
:1038D000E09342058091870490E0FC01EE54FC4D9A
:1038E000E491F0E0EE0FFF1FE258FC4D259134917A
:1038F0003093470520934605FC01E850FC4DE491C8
:10390000E093480580912A058111D4C061E080913F
:10391000A1040F941A1861E08091A0040F941A1862
:1039200061E080919F040F941A1861E080919E04D9
:103930000F941A188091A10490E0FC01EE54FC4D04
:10394000E491F0E0EE0FFF1FE258FC4D2591349119
:103950003093130520931205FC01E850FC4DE491CF
:10396000E09314058091A00490E0FC01EE54FC4D1E
:10397000E491F0E0EE0FFF1FE258FC4D25913491E9
:103980003093160520931505FC01E850FC4DE49199
:10399000E093170580919F0490E0FC01EE54FC4DEC
:1039A000E491F0E0EE0FFF1FE258FC4D25913491B9
:1039B0003093190520931805FC01E850FC4DE49163
:1039C000E0931A0580919E0490E0FC01EE54FC4DBA
:1039D000E491F0E0EE0FFF1FE258FC4D2591349189
:1039E00030931C0520931B05FC01E850FC4DE4912D
:1039F000E0931D0580919D0490E0FC01EE54FC4D88
:103A0000E491F0E0EE0FFF1FE258FC4D2591349158
:103A100030931F0520931E05FC01E850FC4DE491F6
:103A2000E093200580918D0490E0FC01EE54FC4D64
:103A3000E491F0E0EE0FFF1FE258FC4D2591349128
:103A40003093220520932105FC01E850FC4DE491C0
:103A5000E093230580918B0490E0FC01EE54FC4D33
:103A6000E491F0E0EE0FFF1FE258FC4D25913491F8
:103A70003093250520932405FC01E850FC4DE4918A
:103A8000E093260580918A0490E0FC01EE54FC4D01
:103A9000E491F0E0EE0FFF1FE258FC4D25913491C8
:103AA0003093280520932705FC01E850FC4DE49154
:103AB000E0932905809149058A3029F080912A05F3
:103AC0008A3009F0A0C082EB93E2FC012491E22F3E
:103AD000F0E0EE0FFF1FE258FC4D2591349130933A
:103AE00035052093340528EF33E2F90144914093E2
:103AF0003605FC018491E82FF0E0EE0FFF1FE2583D
:103B0000FC4D859194919093440580934305F90170
:103B10002491209345051092810410928004109204
:103B20007F0410927E0461E080E00F941A1861E037
:103B300080E00F941A18CFB7F89480917D0481111A
:103B400027C0E7EEF3E28491EDE2F4E29491E82FEE
:103B5000F0E0EE0FFF1FEC59FC4DA591B491EC91F4
:103B6000E92321F461E085E30F94C31561E085E367
:103B70000F941A188CB580618CBD8CB580648CBD97
:103B800061E084E30F941A1861E083E30F941A183C
:103B900080917D048F5F80937D04CFBF80E58CBDD5
:103BA0001DBC80913605E0913405F091350590817A
:103BB00080958923808380E09FE10F943F0F80915F
:103BC0003605E0913405F09135059081892B80838D
:103BD00080914505E0914305F091440590818095E1
:103BE0008923808380E09FE10F943F0F80914505FA
:103BF000E0914305F09144059081892B808361E039
:103C00008DE00F941A188091970490E0FC01EE5417
:103C1000FC4DE491F0E0EE0FFF1FE258FC4D2591C2
:103C200034913093CC092093CB09FC01E850FC4D32
:103C3000E491E093CD098091C60990E0FC01EE5437
:103C4000FC4DE491F0E0EE0FFF1FE258FC4D259192
:103C500034913093AB0C2093AA0CFC01E850FC4D3E
:103C6000E491E093AC0C8091470C81FF0BC0C091B4
:103C70000F058C2F0E948512811104C060E08C2FEB
:103C80000F941A188091870C8370823058F0C0917D
:103C900011058C2F0E948512811104C060E08C2FC9
:103CA0000F941A1880916C1F86FF0FC0C0917E0A76
:103CB0008C2F0E948512811108C08091781F62E0CC
:103CC00080FF60E08C2F0F941A18D0915A0CD7FF08
:103CD0000DC0C0918C048C2F0E948512811106C0EA
:103CE00062E0D6FD60E08C2F0F941A18D0917C0C06
:103CF000D7FF0DC0C0915B058C2F0E9485128111EA
:103D000006C062E0D6FD60E08C2F0F941A188091F7
:103D1000F71D8873803279F4C091D20A8C2F0E94EB
:103D20008512811108C08091FA1D62E087FF60E072
:103D30008C2F0F941A188091371E8873803279F473
:103D4000C091D30A8C2F0E948512811108C08091E6
:103D50003A1E62E087FF60E08C2F0F941A18809162
:103D6000041E80FF0BC0C091D00A8C2F0E948512C8
:103D7000811104C060E08C2F0F941A188091041EEA
:103D800081FF0BC0C091D10A8C2F0E948512811136
:103D900004C060E08C2F0F941A188091640A807C14
:103DA00059F0C09186048C2F0E948512811104C0A5
:103DB00060E08C2F0F941A188091121E80FF28C08B
:103DC00061E08091980A0F941A188091191E80FF63
:103DD0000EC061E080915D0B0F941A188091191E3E
:103DE00087FF05C061E080915D0B0F94C315D091F2
:103DF0001A1ED0FF0DC0C091A10A8C2F0E948512FF
:103E0000811106C062E0D7FD60E08C2F0F941A1874
:103E100080918404882339F09091620B90FF03C055
:103E200061E00F941A18C0918204CC2379F0D091EC
:103E3000620BD0FF0BC08C2F0E948512811106C02F
:103E400060E0D2FF62E08C2F0F941A1880918304F7
:103E5000882341F09091620B9171913119F461E0E6
:103E60000F941A1880910B0590E0FC01EE54FC4D64
:103E7000E491F0E0EE0FFF1FE856FC4D25913491E0
:103E80003093FF032093FE03FC01E850FC4DE491C6
:103E9000E093FD038091100590E0FC01EE54FC4D91
:103EA000E491F0E0EE0FFF1FE856FC4D25913491B0
:103EB0003093FC032093FB03FC01E850FC4DE4919C
:103EC000E093FA0380910D0590E0FC01EE54FC4D67
:103ED000E491F0E0EE0FFF1FE856FC4D2591349180
:103EE0003093F9032093F803FC01E850FC4DE49172
:103EF000E093F70380910F0590E0FC01EE54FC4D38
:103F0000E491F0E0EE0FFF1FE856FC4D259134914F
:103F10003093750520937405FC01E850FC4DE49145
:103F2000E0937305DF91CF91089598E09093A104F9
:103F300099E09093A0049AE090939F049BE0909363
:103F40009E049CE090939D049CE190939C0498E1D6
:103F500090939B0498E290939A0494E2909399042E
:103F600092E29093980493E190930B0592E19093E1
:103F7000100593E090930D0598E390935C0599E309
:103F80009093560596E39093C40A97E390936D053A
:103F90009EE39093A20A9AE39093C60A91E39093CA
:103FA000970495E09093960495E39093950497E099
:103FB0009093910496E09093900490E390938F04F3
:103FC00094E09093C60990E19093940491E19093CA
:103FD00093049AE190938E0493E49093920493E374
:103FE00090937E0A80930F0582E38093130B8BE3FB
:103FF00080936E0584E18093110531CA98E0909317
:10400000A10499E09093A0049AE090939F049BE010
:1040100090939E049CE090939D0492E390938D0472
:1040200028E220939C0426E220939B0424E320931F
:104030009A049093990492E29093980493E1909358
:104040000B0592E19093100580930D0588E3809312
:104050005C0589E38093560586E38093C40A87E371
:1040600080936D058EE38093A20A8AE38093C60A4B
:1040700081E38093970485E08093960486E08093A3
:10408000950487E08093910484E08093900480E31A
:1040900080938F048DE28093C60980E1809394041D
:1040A00081E18093930488E180938E048FE2809372
:1040B000920483E380937E0A82E080930F058BE273
:1040C0008093130B8BE380936E0584E1809311053D
:1040D0008EE28093A10A8CE280935D0B8AE280934A
:1040E000980ABDC98CE28093A1048EE28093A0045B
:1040F0008FE280939F048DE280939E048EE08093F4
:104100009D048AE280939C048BE280939B0480E26E
:1041100080939A0481E28093990482E280939804C8
:1041200083E180930B0582E18093100582E0809308
:104130000D0588E380935C058BE38093560586E349
:104140008093C40A87E380936D0589E38093A20A74
:104150008AE38093C60A87E18093970485E0809381
:10416000960484E0809391049BE09093900490E304
:1041700090938F048093950488E28093C60980E130
:104180008093940481E18093930488E180938E046A
:1041900089E2809392048CE080937E0A83E080938E
:1041A0000F0587E28093130B5AC99BE09093A104FB
:1041B0009AE09093A00499E090939F0480939E04CA
:1041C0008EE080939D0487E280939C0489E2809333
:1041D0009B0480E280939A0481E28093990482E2B6
:1041E0008093980483E180930B0582E1809310050E
:1041F00088E380935C058BE38093560586E3809388
:10420000C40A87E380936D0589E38093A20A8AE359
:104210008093C60A8FE38093970482E0809396048C
:1042200084E0809391048093950481E38093C60990
:1042300080E18093940481E18093930488E18093EA
:104240008E0483E28093920485E280937E0A83E069
:1042500080930F058CE2A6CF9BE09093A1049AE097
:104260009093A00480939F0488E080939E048EE046
:1042700080939D0487E280939C0489E280939B0451
:1042800080E280939A0481E28093990482E2809391
:10429000980483E180930B0582E18093100588E305
:1042A00080935C058BE38093560586E38093C40A74
:1042B00087E380936D0589E38093A20A8AE3809364
:1042C000C60A81E38093970482E08093960484E099
:1042D000809391048093950485E28093C6098FE0D2
:1042E00080938E0480E18093940481E18093930411
:1042F00083E2809392048CE080937E0A83E0809333
:104300000F058CE28093130B75CE94E09093A1047B
:1043100095E09093A00496E090939F0497E090938B
:104320009E0498E090939D0499E090938D0480936F
:104330008B048BE080938A0488E180939C048CE159
:1043400080939B0484E280939A0488E2809399048A
:1043500082E28093980482E180930B0583E180934D
:10436000100588E380935C0589E38093560586E316
:104370008093C40A87E380936D058AE38093A20A41
:104380008DE38093C60A8AE28093C6098FE2809308
:10439000920481E38093970482E080930F058AE181
:1043A00001CF88E08093A10489E08093A0048AE093
:1043B00080939F048BE080939E048CE080939D0407
:1043C00088E280939C0486E280939B0482E380933E
:1043D0009A0484E38093990482E28093980483E1B1
:1043E00080930B0582E18093100581E180930D0598
:1043F00088E380935C0589E38093560586E3809388
:10440000C40A87E380936D058EE38093A20A8FE34D
:104410008093B30A8AE38093C60A81E3809397046A
:1044200085E0809396048DE28093C60984E18093B1
:10443000940485E18093930487E0809391048FE254
:10444000809392040C942F1A88E08093A10489E051
:104450008093A0048BE080939F048CE080939E0463
:104460008DE080939D0487E180939C0486E1809396
:104470009B0482E080939A0483E0809399048EE207
:104480008093980483E180930B0582E1809310056B
:1044900085E180930D0589E380935C0586E3809335
:1044A00056058BE38093C40A8AE380936D0588E305
:1044B0008093A20A87E38093C60A8CE380936E05FB
:1044C00086E28093970485E0809396048FE2809340
:1044D000950487E08093910486E08093900480E3C4
:1044E00080938F0484E08093C60989E180939404CB
:1044F00088E1809393048BE180938E048AE080931B
:104500007E0A84E180930F058EE18093920447CF69
:1045100088E08093A10487E08093A00486E08093E4
:104520009F0485E080939E048DE280939D0483E246
:1045300080939C0484E280939B0481E280939A049C
:1045400082E2809399048CE28093980483E18093C3
:104550000B0582E18093100583E080930D0584E1D3
:1045600080930F0589E380935C0586E3809356056D
:104570008DE380936E058BE38093C40A8AE3809376
:104580006D0587E38093A20A8FE38093B30A88E3E3
:104590008093C60A85E280937E0A86E18093970421
:1045A00089E0809396048AE08093950487E1809364
:1045B000C6098BE08093900480E380938F0480E2AF
:1045C000809394048FE1809393048EE180938E0412
:1045D0008CE08093910488E1809392048EE2E2CD96
:1045E00086E08093A10487E08093A00488E0809314
:1045F0009F0489E080939E0488E180939C0489E174
:1046000080939B0487E180939A0486E180939904C8
:1046100083E180930B0582E18093100584E1809310
:104620000F0586E380935C0588E38093A20A89E303
:104630008093C40A8AE380936D058DE380935605C9
:104640008CE38093C60A8BE380936E058FE380939F
:10465000B30A82E080937E0A8AE0809397048BE01D
:10466000809396048EE08093950483E08093C6093E
:104670008FE0809390048DE0809391048CE0ACCF28
:1046800061E00F94C3158091DD1E81608093DD1E73
:104690000C94521B61E00F94C3158091DD1E8E7F38
:1046A000F5CF8091B21F23E0829FC0011124209199
:1046B0001104309112042817390780F56091650DB7
:1046C00060956170809194040F94C31560E08091AF
:1046D0008E040F94C31561E0809193040F94C31569
:1046E0000F94731860935604709357048093580482
:1046F0009093590481E090E0909355048093540482
:104700008091110490911204019690931204809369
:10471000110481E080934E0480E0089581E00895C3
:10472000209152043091530480915004909151048F
:10473000281B390B8091B31F682F772761950CF4E4
:1047400070952617370724F0821713060CF040C027
:104750009091650D80919404692F617037FF30C08E
:10476000692F609561700F94C315809150049091EA
:1047700051040197909351048093500460E080911C
:104780008E040F94C31561E0809193040F94C315B8
:104790000F947318609356047093570480935804D1
:1047A0009093590481E090E09093550480935404D1
:1047B00080934E0480918F1E806480938F1E089595
:1047C0000F94C31580915004909151040196D2CF5B
:1047D00080918F1E8F7BF1CFCF93DF938091540414
:1047E00090915504019751F0809154049091550493
:1047F000029721F080E0DF91CF91089580915404D9
:1048000090915504C0911604D0911704019721F09E
:10481000C0911404D09115040F947318AB01BC011E
:104820008091560490915704A0915804B091590476
:104830008C0F9D1FA11DB11D84179507A607B707F3
:1048400008F58091540490915504019711F560E0AA
:10485000809193040F94C3150F94731860935604BA
:1048600070935704809358049093590480911404D2
:1048700090911504892B41F082E090E090935504CB
:104880008093540481E0B7CF1092550410925404E1
:10489000F9CF10925504109254048091650D87FD54
:1048A000A9CF2091520430915304809150049091EB
:1048B00051042817390709F09DCF61E080918E04DB
:1048C0000F94C31597CFCF92DF92EF92FF92CF93C1
:1048D000DF93F894C0910005D0910105C090BE0C03
:1048E000D090BF0CE090C00CF090C10C0F947318E6
:1048F0006093A6027093A7028093A8029093A902E6
:104900007894CC0FDD1FC054DB4F0990D881C02DA7
:104910008091C41C9091C51CC80FD91F2091A6027C
:104920003091A7024091A8025091A9022C193D098B
:104930004E095F09E0910005F09101053197E730DC
:10494000F10598F48827E855FB4D8F4F0D949F4B48
:10495000DC24AF24DC24AF24DC24D624D9248AEA46
:1049600090E09093070580930605A091EC0AB09122
:10497000ED0A0F943F4BDC01CB01905CAF4FBF4F72
:104980002FE0B695A795979587952A95D1F78C0F27
:104990009D1F803D22E0920794F0805D9240DF9160
:1049A000CF91FF90EF90DF90CF90089583E290E059
:1049B000D8CF87E890E0D5CF86E490E0D2CF97FFBC
:1049C000EECF80539D4FEBCF0F94731860939802F6
:1049D0007093990280939A0290939B02809198021F
:1049E00090919902A0919A02B0919B024091BA0CC9
:1049F0005091BB0C6091BC0C7091BD0C841B950B4D
:104A0000A60BB70B8093F8049093F904A093FA04D3
:104A1000B093FB048091BA0C9091BB0CA091BC0C9C
:104A2000B091BD0C892B8A2B8B2B61F58091F404FE
:104A30009091F504A091F604B091F704880F991FA6
:104A4000AA1FBB1F8093940290939502A093960295
:104A5000B09397021092F8041092F9041092FA049D
:104A60001092FB048091980290919902A0919A0271
:104A7000B0919B028093BA0C9093BB0CA093BC0C9A
:104A8000B093BD0C4091F8045091F9046091FA0480
:104A90007091FB048091BC049091BD04A091BE0470
:104AA000B091BF04481759076A077B0708F4DBC0B9
:104AB0008091B70C9091B80C01969093B80C8093AC
:104AC000B70C8091980290919902A0919A02B091AE
:104AD0009B028093BA0C9093BB0CA093BC0CB09338
:104AE000BD0C80913C1F85FF2BC08091CC1C8F7723
:104AF00041F0833029F58091B70C9091B80C06975E
:104B0000F9F4E0911E02F0911F021995893621E017
:104B100092071CF088569140F9CF2091C41C309127
:104B2000C51C821B930B2091421F2370223021F45D
:104B30002091011E821B91099093F21E8093F11E19
:104B40008091CC1C8F77C1F481E08093B304809175
:104B5000F8049091F904A091FA04B091FB04B69581
:104B6000A795979587958093BC049093BD04A093D7
:104B7000BE04B093BF040895833009F074C040911F
:104B8000F8045091F9046091FA047091FB0480914B
:104B9000940290919502A0919602B09197024817C5
:104BA00059076A077B0768F58091F8049091F9042A
:104BB000A091FA04B091FB04B695A79597958795B7
:104BC0008093BC049093BD04A093BE04B093BF0433
:104BD0002091F8043091F9044091FA045091FB04BB
:104BE000A3E0B0E00F943F4B969587957795679536
:104BF000609394027093950280939602909397022B
:104C000008958091B70C9091B80C069771F41092AA
:104C1000B30480910005909101054397F0F48091D1
:104C2000000590910105429614C08091B70C9091B7
:104C3000B80C0497C9F481E08093B3048091000517
:104C400090910105429748F08091000590910105EF
:104C50004297909301058093000581E090E0909346
:104C6000B80C8093B70C08958091B70C9091B80C54
:104C7000039799F781E08093B304CBCFCF92DF9273
:104C8000EF92FF92CF93DF93F894C091B70CD0913D
:104C9000B80CC090BE0CD090BF0CE090C00CF0904F
:104CA000C10C0F9473186093A6027093A7028093AF
:104CB000A8029093A90278942091A6023091A702AD
:104CC0004091A8025091A9022C193D094E095F0993
:104CD000A091EC0AB091ED0A0F943F4BDC01CB019F
:104CE000905CAF4FBF4F2FE0B695A79597958795EE
:104CF0002A95D1F7CC0FDD1FC054DB4F4881598175
:104D00002091C41C3091C51C240F351F820F931FA6
:104D1000803D22E092074CF0805D9240DF91CF9180
:104D2000FF90EF90DF90CF90089597FFF7CF8859CD
:104D30009E4FF4CFCF92DF92EF92FF928091D01CE2
:104D40008C718C3031F08091470C8073803309F086
:104D5000F1C00F9473186093980270939902809336
:104D60009A0290939B028091980290919902A0914F
:104D70009A02B0919B024091BA0C5091BB0C609189
:104D8000BC0C7091BD0C841B950BA60BB70B8093CC
:104D9000F8049093F904A093FA04B093FB044091B3
:104DA000F8045091F9046091FA047091FB04809129
:104DB000BC049091BD04A091BE04B091BF048417BF
:104DC0009507A607B70708F0B5C08091BA0C909177
:104DD000BB0CA091BC0CB091BD0C892B8A2B8B2BEA
:104DE00009F498C08091BE0C9091BF0CA091C00CAA
:104DF000B091C10C892B8A2B8B2B09F48BC080912D
:104E0000F0049091F104A091F204B091F304892B85
:104E10008A2B8B2B09F47EC02091BE0C3091BF0CE5
:104E20004091C00C5091C10C8091F0049091F1041C
:104E3000A091F204B091F304C090F804D090F9046A
:104E4000E090FA04F090FB04281B390B4A0B5B0B33
:104E5000A3E0B0E00F943F4BC616D706E806F9066C
:104E600008F46DC08091B70C9091B80C892BF1F1CA
:104E70002091A6042223D1F18091B90C9091450C88
:104E800092959F70882381F0E091B90C4091B70C06
:104E90005091B80CF0E0EE0FFF1FEE53FB4F608116
:104EA000718164177507B1F01092B90CE0ECF4E071
:104EB00081E09817D8F04091B70C5091B80C6281FE
:104EC00073816417750719F43081231769F08F5FB8
:104ED0003296EFCF8091B90C8F5F8093B90C80919F
:104EE000B90C981718F481E08093B90C8091B70C35
:104EF0009091B80C8093A60481E090E09093B80C58
:104F00008093B70C1092BC041092BD041092BE04A2
:104F10001092BF048091980290919902A0919A02F8
:104F2000B0919B028093BA0C9093BB0CA093BC0CE5
:104F3000B093BD0CFF90EF90DF90CF9008958091DB
:104F4000B70C9091B80C892B29F38091B70C9091F4
:104F5000B80C01969093B80C8093B70C8091F8042C
:104F60009091F904A091FA04B091FB0422E0B69567
:104F7000A795979587952A95D1F78093BC04909330
:104F8000BD04A093BE04B093BF04C4CFCF92DF9200
:104F9000EF92FF920F931F938091D01C8C718C30F5
:104FA00029F08091470C8073803319F50F947318A2
:104FB000609398027093990280939A0290939B0257
:104FC000E091FB03F091FC0380819091FA03892327
:104FD000B9F08091980290919902A0919A02B091B3
:104FE0009B028093AB049093AC04A093AD04B09368
:104FF000AE041F910F91FF90EF90DF90CF90089536
:105000008091980290919902A0919A02B0919B028E
:105010004091BA0C5091BB0C6091BC0C7091BD0CCE
:10502000841B950BA60BB70B8093F8049093F9049F
:10503000A093FA04B093FB044091F8045091F90452
:105040006091FA047091FB048091BC049091BD04BE
:10505000A091BE04B091BF0484179507A607B707B7
:1050600040F68091BA0C9091BB0CA091BC0CB09111
:10507000BD0C892B8A2B8B2B09F48FC08091A70440
:105080009091A804A091A904B091AA04892B8A2B1D
:105090008B2B09F482C08091B70C9091B80C892BAE
:1050A00049F08091B70C9091B80C01969093B80C90
:1050B0008093B70C2091BA0C3091BB0C4091BC0C82
:1050C0005091BD0C8091A7049091A804A091A904CF
:1050D000B091AA04C090F804D090F904E090FA04CA
:1050E000F090FB04281B390B4A0B5B0BA3E0B0E0EC
:1050F0000F943F4B9695879577956795C616D7067B
:10510000E806F90608F486C04091AB045091AC045F
:105110006091AD047091AE040091BA0C1091BB0C7B
:105120002091BC0C3091BD0C809198029091990215
:10513000A0919A02B0919B02C090AB04D090AC04B5
:10514000E090AD04F090AE04401B510B620B730B6A
:105150008C199D09AE09BF09481759076A077B07D3
:1051600008F043C08091B70C9091B80C892BB1F135
:105170008091B70C9091B80C089781F18091B70C91
:105180009091B80C892B09F040C01092BC04109289
:10519000BD041092BE041092BF048091BA0C90918D
:1051A000BB0CA091BC0CB091BD0C8093A704909354
:1051B000A804A093A904B093AA04809198029091A6
:1051C0009902A0919A02B0919B028093BA0C90939D
:1051D000BB0CA093BC0CB093BD0C0BCF81E090E056
:1051E0009093B80C8093B70CD0CF8091B70C90916E
:1051F000B80C892B39F08091B70C9091B80C0597B9
:1052000009F0BCCF85E090E0EBCF1092B80C109283
:10521000B70CBBCF8091B70C9091B80C892B09F4D7
:10522000BCCF8091F8049091F904A091FA04B09158
:10523000FB0422E0B695A795979587952A95D1F717
:105240008093BC049093BD04A093BE04B093BF04AC
:10525000A4CFCF92DF92EF92FF92CF93DF930F9480
:105260007318609398027093990280939A029093B6
:105270009B028091980290919902A0919A02B0911C
:105280009B024091BA0C5091BB0C6091BC0C709188
:10529000BD0C841B950BA60BB70B8093F804909361
:1052A000F904A093FA04B093FB044091F8045091E0
:1052B000F9046091FA047091FB048091BC04909110
:1052C000BD04A091BE04B091BF04481759076A07F6
:1052D0007B0708F449C08091980290919902A091AF
:1052E0009A02B0919B028093BA0C9093BB0CA0934E
:1052F000BC0CB093BD0C80913D1E80FD5CC00F9432
:1053000073186093BE0C7093BF0C8093C00C909385
:10531000C10C0F9473186B017C01C091D31C2C2F0E
:1053200030E050E040E060E87DE88BE590E00F94ED
:10533000524BC21AD30AE40AF50AC092F004D09282
:10534000F104E092F204F092F304D0E0D09301056E
:10535000C09300058091EC1E8F5F8093EC1E8091BE
:105360003D1E816080933D1E8091B8049091B904E8
:10537000A091BA04B091BB044091B4045091B5041B
:105380006091B6047091B704841B950BA60BB70B04
:10539000B695A795979587958093BC049093BD0487
:1053A000A093BE04B093BF04DF91CF91FF90EF9024
:1053B000DF90CF90089586E090E090930105809370
:1053C0000005D2CFCF92DF92EF92FF920F94731825
:1053D000609398027093990280939A0290939B0233
:1053E0008091980290919902A0919A02B0919B02AB
:1053F0004091BA0C5091BB0C6091BC0C7091BD0CEB
:10540000841B950BA60BB70B8093F8049093F904BB
:10541000A093FA04B093FB048091BA0C9091BB0C5A
:10542000A091BC0CB091BD0C892B8A2B8B2BC1F4A5
:105430001092F8041092F9041092FA041092FB04EE
:105440008091980290919902A0919A02B0919B024A
:105450008093BA0C9093BB0CA093BC0CB093BD0C82
:105460004091F8045091F9046091FA047091FB04A2
:105470008091BC049091BD04A091BE04B091BF0482
:10548000481759076A077B0708F4DEC02091BA0C59
:105490003091BB0C4091BC0C5091BD0C8091A70485
:1054A0009091A804A091A904B091AA04281B390BDB
:1054B0004A0B5B0BA3E0B0E00F943F4B96958795AA
:1054C0007795679560939402709395028093960206
:1054D000909397028091BA0C9091BB0CA091BC0C58
:1054E000B091BD0C8093A7049093A804A093A90445
:1054F000B093AA044091F8045091F9046091FA0421
:105500007091FB048091940290919502A091960273
:10551000B0919702481759076A077B0708F054C0F3
:105520008091B70C9091B80C059709F44DC080910B
:10553000F8049091F904A091FA04B091FB0422E0E0
:10554000B695A795979587952A95D1F78093BC0432
:105550009093BD04A093BE04B093BF048091B70C98
:105560009091B80C01969093B80C8093B70C8091F1
:10557000980290919902A0919A02B0919B02809317
:10558000BA0C9093BB0CA093BC0CB093BD0C809153
:105590003C1F85FF59C08091B304882309F454C08F
:1055A0008091B70C9091B80C019709F04DC0E09133
:1055B0001E02F0911F021995AC01493681E058078F
:1055C000A4F048565140F9CF81E090E09093B80C98
:1055D0008093B70C8093B3041092BC041092BD0466
:1055E0001092BE041092BF04C2CF8091421F8370FC
:1055F000823051F5E091401D9A01220F331FF0E0F7
:10560000A0E0B1E0AE1BBF0B0F94AE4B6B017C0171
:105610009F01DA010F94B64BC60ED71EE81EF91E85
:10562000CD2CDE2CEF2CFF24E7FCFA9488E691E0E9
:105630008C199D092091FF1D3091001E821B930B38
:105640009093F21E8093F11EFF90EF90DF90CF9029
:1056500008950F9473186093980270939902809341
:105660009A0290939B028091980290919902A09146
:105670009A02B0919B024091BA0C5091BB0C609180
:10568000BC0C7091BD0C841B950BA60BB70B8093C3
:10569000F8049093F904A093FA04B093FB044091AA
:1056A000F8045091F9046091FA047091FB04809120
:1056B000BC049091BD04A091BE04B091BF044817F2
:1056C00059076A077B0708F4F4C08091980290910B
:1056D0009902A0919A02B0919B028093BA0C909388
:1056E000BB0CA093BC0CB093BD0C8091B70C9091F7
:1056F000B80C029709F04FC08091A604833009F0DE
:105700004AC080913D1E80FD77C00F94731860934E
:10571000BE0C7093BF0C8093C00C9093C10C0F947F
:1057200073186056734E864191096093F00470932C
:10573000F1048093F2049093F3048091D31C815080
:10574000990B909301058093000580913D1E816027
:1057500080933D1E81E08093B3048091F404909186
:10576000F504A091F604B091F70442E0880F991F68
:10577000AA1FBB1F4A95D1F78093BC049093BD0428
:10578000A093BE04B093BF0481E090E09093B80C66
:105790008093B70C089580913D1E80FF56C0809184
:1057A000F4049091F504A091F604B091F7044091AF
:1057B000F4045091F5046091F6047091F704B695E5
:1057C000A79597958795840F951FA61FB71F809360
:1057D000BC049093BD04A093BE04B093BF04809119
:1057E000B70C9091B80C01969093B80C8093B70CBD
:1057F00081E08093A60408958091D31C2091000538
:105800003091010590E0AC01415051094217530716
:1058100091F04091AF1E5091B01E6091B11E7091F9
:10582000B21E433051056105710528F02091EC1E30
:105830002F5F2093EC1E2091CA1C27FF8BCF01976E
:10584000909301058093000585CF8091000590918C
:105850000105039708F4A3CF8091B70C9091B80C81
:10586000892B09F09CCF0F9473186093BE0C709332
:10587000BF0C8093C00C9093C10C0F9473186056AA
:10588000734E864191096093F0047093F104809304
:10589000F2049093F30481E090E0909301058093EB
:1058A00000058093B30480913D1E816080933D1E6E
:1058B00008958091F4049091F504A091F604B091BC
:1058C000F7044091F4045091F5046091F60470914E
:1058D000F704B695A79597958795840F951FA61FF2
:1058E000B71F8093BC049093BD04A093BE04B093F3
:1058F000BF047ECFCF92DF92EF92FF92CF93DF93E0
:10590000F894C0910005D0910105C090BE0CD090D4
:10591000BF0CE090C00CF090C10C0F947318609312
:10592000A6027093A7028093A8029093A90278948C
:10593000CD7FE091C41CF091C51C219711F0E35676
:10594000FF4F2091A6023091A7024091A8025091EA
:10595000A9022C193D094E095F09A091EC0AB091EA
:10596000ED0A0F943F4BDC01CB01905CAF4FBF4F72
:105970002FE0B695A795979587952A95D1F78E0F25
:105980009F1F803D22E092074CF0805D9240DF91A6
:10599000CF91FF90EF90DF90CF90089597FFF7CFD2
:1059A00088599E4FF4CFCF92DF92EF92FF92CF9320
:1059B000DF93F894C0910005D0910105C090BE0C12
:1059C000D090BF0CE090C00CF090C10C0F947318F5
:1059D0006093A6027093A7028093A8029093A902F5
:1059E00078942091A6023091A7024091A80250918C
:1059F000A9022C193D094E095F09A091EC0AB0914A
:105A0000ED0A0F943F4BDC01CB01905CAF4FBF4FD1
:105A10002FE0B695A795979587952A95D1F7CC0F46
:105A2000DD1FC254DB4F488159812091C41C309145
:105A3000C51C240F351F820F931F803D22E0920763
:105A40004CF0805D9240DF91CF91FF90EF90DF901E
:105A5000CF90089597FFF7CF4091220250912302F3
:105A60002091080230910902241735070CF49A019D
:105A7000820F931FE8CF8091B90C882371F0809139
:105A8000B90C833051F08091B90C843008F082C099
:105A90001092B80C1092B70C08950F94731860937D
:105AA00098027093990280939A0290939B0280913E
:105AB000980290919902A0919A02B0919B02409114
:105AC000BA0C5091BB0C6091BC0C7091BD0C841B46
:105AD000950BA60BB70B8093F8049093F904A09351
